S01B00006275696C642F72656C656173652F7A69676265652E73333714
S2140060000810002091950000A1D800004F1803004A
S2140060104F180300A9D80000B1D800004F1803009D
S2140060204F1803004F1803004F1803004F180300C3
S214006030B5D80000C45604004F1803004F180300DC
S2140060404F1803004F1803004F180300619000001C
S2140060504F1803004F1803004F1803004F18030093
S2140060604F1803004F1803004F1803004F18030083
S21400607021DE00004F1803004F1803004F180300DE
S2140060804F1803004F1803004F1803004F18030063
S2140060904F1803004F1803004F1803004F18030053
S2140060A04F1803005D9900003D9900004F1803004B
S2140060B04F180300852102004F180300E92B020049
S2140060C0696F0300656F0300C52302007F6F03003E
S2140060D06D6F0300B92B0200716F0300292C0200BC
S2140060E095320200910F0200952C02004F18030013
S2140060F04F1803004F1803004F1803004F180300F3
S2140061004F1803004F1803004F1803004F180300E2
S2140061104F1803004F1803004F1803004F180300D2
S2140061204F1803004F1803004F1803004F180300C2
S2140061304F1803004F1803004F1803004F180300B2
S21400614082B030BF074BD3F8F030DB0704D500230E
S2140061500193019B052B01DD02B07047019B0133C3
S214006160F6E700BF00ED00E0F0B5114A114C124E04
S21400617000F00105E3695F0713D40DB9334213D16C
S21400618003EA00078F4207D10B4A1A40002A14BFC1
S2140061906FF001000020F0BD013AEBD16FF0020075
S2140061A0F9E74FF0FF30F6E76FF00100F3E700BFC6
S2140061B08096980000000350020001000B4B70B55B
S2140061C0D96911F480310DD101244FF48072084E44
S2140061D0084DF46020462C641A61FFF7C5FF34644E
S2140061E0EC6070BD6FF00100FBE700BF00000350DD
S2140061F000100350002003504FF4003238B50F4B08
S2140062000F4C9A6641F671330122E569E3630D4B44
S2140062100021DA60022360612120236105F48035C5
S214006220FFF7A2FF10B92120FFF79EFF0122064BC1
S214006230DA600DB10023E36338BD00BF0090005064
S21400624000000350001003500020035070B5134C9C
S2140062506061E3695B071ED40E4656F8043B8D1852
S214006260A361AE420BD10423002121202361FFF756
S2140062707BFF58B9BDE870402120FFF775BF0821A5
S2140062800846FFF771FF10B10423236170BD56F86E
S214006290043BA361E5E74FF0FF30F7E7000003504B
S2140062A02DE9F84315464FF40032184B89469A6696
S2140062B041F6713203F51C33DF69DA6301220646C4
S2140062C003F58053DFF84C8007F48037DA6055B961
S2140062D0284601220E4BDA601FB10022A3F50053B8
S2140062E0DA63BDE8F88306F5005404EA0804A41B44
S2140062F0AC4228BF2C46494622463046FFF7A6FF4A
S2140063000028E6D12644A1442D1BE0E7009000506B
S20C0063100020035000E0FFFF2F
S2140063182DE9F04F4FF0FD0BC9B09A460DF11B0959
S2140063289DF8503108AFCDF80C90CDF808B001971D
S214006338059303890446009383790E469046418860
S2140063488288407811F08CFC054650B10090A388EE
S214006358002062883A4911F0C7FF284649B0BDE8D0
S214006368F08F99F800002EF007F938B12846A38870
S2140063786288344911F0B8FF8D25EEE75A4639464B
S21400638899F800002EF0A0F88346002851D0529BBA
S2140063981BB1BDF84C3198424BD8002399F80090B1
S2140063A80793A9F14102012A5FFA8BF123D83846F0
S2140063B80139254ADFF898C05FFA81FE734513DB7A
S2140063C8059B04210792C3B907AF18221F489FED03
S2140063D81A7B02FB060420460A460830394684ED36
S2140063E8027B16F0D5FD11E010F8011F013351406D
S2140063F80CFB01F2E2E7059B33B123464A463846D2
S21400640800960FF0AFFBA8E70829DED9B8F1000F11
S21400641801D088F80090BAF1000F01D0AAF800B0B1
S214006428529B002B99D05A46184608A916F0B0FD7C
S21400643893E7012591E700BF000000000000000078
S214006448BBFF0300F0FF0300C59D1C8180100020E1
S21400645893010001000000002DE9F04F93B0CDE94C
S2140064680A32DDE91C530E9353EC102BCDE90801D4
S214006478104619468DED060B1E9E16F013F880B1D1
S214006488DDE906014FF0FF32C54B16F033F840B988
S214006498DDE906014FF0FF326FF4801316F00CF8B2
S2140064A870B1DDE908019DED060B0E9B1E96CDE941
S2140064B81C53DDE90A3213B0BDE8F04F00F088B986
S2140064C80022DDE90601002315F0F6FF002800F09B
S2140064D83381DDE906A303F1004BCBF30A5016F42B
S2140064E88063A0F2FF3008BF06250F9315F008FD5D
S2140064F89BA3D3E9002315F06DFD9BA3D3E90023E6
S21400650815F0B2FBCBF31304894644F07F5180465E
S2140065180022A44B504641F4401115F0A3FB94A367
S214006528D3E9002315F056FD02460B464046494679
S21400653815F09AFB15F0E8FF044615F0E1FC8EA36B
S214006548D3E900238046894615F044FD0022964B81
S21400655815F08AFB15F0D8FF89A3D3E90023074670
S2140065684946404615F036FD80463846894615F0B9
S214006578C7FC85A3D3E9002315F02CFD02460B467D
S2140065884046494615F06EFB02460B46CDE90C23FD
S21400659815F020FDDDE90C2380468946104619468D
S2140065A815F062FB0022CDE91001804B40464946B3
S2140065B815F03AFE00227E4B15F056FB02460B46B7
S2140065C84046494615F030FE00227A4B15F04CFB43
S2140065D802460B464046494615F026FEDDE90C23E2
S2140065E88046894600204FF0804115F03BFB024666
S2140065F80B464046494615F037FB02460B46DDE992
S214006608100115F011FE07F2FF3700226A4B15F04D
S2140066182BFB00223B0515F0DDFC52465B46804608
S214006628894615F067FF002840F08980CDE90C8977
S21400663804F16303C62B8CBF0527042731051BD539
S21400664853A3D3E900235046594615F049FF0028BE
S2140066587FD051A3D3E900235046594615F02CFFA6
S214006668002876D00027A542C6BF2C1B04F1FF35AC
S21400667800253C4646F480660E9B9F422CBF4FF092
S2140066880008A3EB070816F0020903D0002F18BF6E
S2140066984FF000083CB1DDE90C235046594615F08A
S2140066A8C3FD82468B46DDE906010022002315F06D
S2140066B803FF10B10BF100439B46DDE9080126F401
S2140066C80063CDE90183DDE90A324BEC10AB009597
S2140066D800F07EF802465FB3DDE9091316F0200FD6
S2140066E800F10105089E0CBF65204520B047DDE98E
S2140066F808010523002205930A23002CCDE902325F
S21400670807F1FF374FEAD473B8BF64422A460193AD
S21400671804970A9B00942FF061FE0246B9F1000F19
S21400672806D00B9BC41A0B9B1A190E9BA34245D87E
S214006738104613B0BDE8F08FDDE906ABCDE60022C3
S214006748404649461A4B15F06FFD013CCDE90C0151
S2140067586EE7002D90D00F9B002B8DD0013D8BE768
S214006768FB799F501344D33FB3C8608B288AC63F33
S21400677861436F63A787D23F71A379094F930A4095
S2140067881655B5BBB16B0240EF39FAFE422EE63F0E
S2140067982D431CEBE2361A3F0000000080842E4191
S2140067A8FFFFEF7F0000F83F0000E03F00002C40AE
S2140067B800002440000018400000F03F2020DDE9DB
S2140067C80913089DA8470134ADE700BF0000000084
S2140067D82DE9F04F5BEC10AB97B0CDE90501DDE98C
S2140067E82058CDE90723504652465B465946229F15
S2140067F815F058FE70B90323CDE902870193AA4B1A
S2140068080093DDE90501DDE907232FF019FD17B030
S214006818BDE8F08F4FF0FF326FF4801350465946AC
S21400682815F04AFE28B10423CDE9028701939F4B51
S214006838E6E74FF0FF32504659469D4B15F05AFE94
S21400684868B19C4A07F00403002B08BF03229A4B42
S2140068581CBF13460422CDE902870192D0E75046B2
S2140068688DA3D3E90023594615F044FE38B98CA306
S214006878D3E900235046594615F01EFE68B1DDE9F7
S2140068880723DDE905014BEC10ABCDE92187209500
S21400689817B0BDE8F04FFFF7DFBD002200235046D3
S2140068A8594615F009FE002800F091805B465246CE
S2140068B80020002115F0D6F9012382468B4609935D
S2140068C817F4806400F08580092D40F28580002446
S2140068D830210EABA5F109020134202C03F8011B68
S2140068E8A5EB040901D09442F6D15946504615F056
S2140068F80BFE724B054603EBC90393ED007B8DED4B
S2140069080A7B15F0FDFA02460B465046594615F026
S214006918A9F9DDE90A2315F05DFB02460B46CDE929
S2140069280C2315F019FE064615F0DAFA02460B4651
S214006938DDE90C0115F096F902460B46CDE90C2365
S21400694800225F4B15F0D6FD002848D001363046A9
S21400695815F0C6FA02460B46DDE90A0115F0B6FD43
S21400696808B100260135B9F1000F45D1284615F0C3
S214006978C7FA02460B465046594615F073F90022E8
S2140069884F4B15F099FD10B9E90700D501350A21D6
S2140069980EAB1A19202C0AD095FBF1F001FB105506
S2140069A8303502F8015B013405460028F2D107F0BD
S2140069B80302012A55D1B8F1000F52D0099A12B92C
S2140069C817F00C0F01D008F1FF38302240E009908C
S2140069D876E74FF0060988E7A946002485E70022EF
S2140069E8DDE90C01364B15F067FD0028BBD10EB16A
S2140069F8F007B8D50136B6E70A210EAB1A19202CCF
S214006A080DD0B6FBF1F001FB1063092E03F130033D
S214006A1809F1FF3904F1010402F8013B11D83021CD
S214006A28A1440EAA202CB2D04C4504F101030AD189
S214006A3804F158020DEB02042E2204F8202C1C4602
S214006A48A5E70646DBE7A1541C46EBE71A550134D2
S214006A58444506D2202CF9D1CDE9028701940EAB25
S214006A68CEE6202CF8D0099B3BB12D2204F1580322
S214006A786B4403F8202C0134EEE77A0704D504F1BA
S214006A8858032B226B44F4E73B07E5D504F158037B
S214006A9820226B44EDE700BF0000000065CDCD4125
S214006AA80000000065CDCDC1DE1C0400E21C040019
S214006AB8FFFFEF7FD51C0400DA1C0400B86504004D
S214006AC80000E03F0000000070B58EB02C220021C8
S214006AD803A816F0CDF864234FF002320893CDE9E8
S214006AE805230B2301218DF834305B4B8DF81010ED
S214006AF81D880D4040F0A980084633F0DFFC0A22C6
S214006B08564B574C1A704FF42873ADF812304FF0A6
S214006B18FF332360534B54491B8820460B82534B44
S214006B28534A1B68CD828B61524B0D621B884B8281
S214006B38514B1B68CB611CF075F920B14FF41B71E3
S214006B484E4834F0E5FC0521206830F0AFFA20B155
S214006B5840F27D21494834F0DBFC206815F03EF809
S214006B68474B206819682FF01BFE0C2534F00EF9E9
S214006B786843099034F00AF968430DEB050107905D
S214006B88206816F011FD20B140F295213B4834F0FC
S214006B98BFFC25681EF070FD0022014628462FF02F
S214006BA877FE20B140F29721344834F0B1FC40F229
S214006BB80353344D344E2B80052396F90000AB70F2
S214006BC87F2801D11CF016FC3378EB7034F0DEF821
S214006BD800EB80008000A88034F0D8F80023C000BE
S214006BE84FF0FF31E880AB604FF0FF3018A3D3E9D1
S214006BF8002333F0B5FD254920682FF002FE2068F3
S214006C0802A930F0FAFA20B14FF434711B4834F078
S214006C187FFC042220680DEB02012FF096FD042865
S214006C2804D040F2D721154834F072FC01A901209F
S214006C382FF057F906F074FE01201DF05FF82BF0D0
S214006C486AFB1DF085F81CF06DFB0EB070BD00BF2A
S214006C580A0020FF4203000072580020A25F0020AE
S214006C6898520020587F040090660020607F040039
S214006C78EDA40300567F04005C7F0400A7550400BB
S214006C88D06300208C5200205869002061A50300BC
S214006C980348044B834202D0034B03B1184770479E
S214006CA8846900208469002000000000064B07491C
S214006CB8C91A891048BF0131491003D0044B0BB1DB
S214006CC801481847704700BF84690020846900207F
S214006CD80000000010B5064C237843B9FFF7D8FF2C
S214006CE8044B13B10448AFF300800123237010BD92
S214006CF8B81500200000000078BA040008B5044B58
S214006D081BB104490448AFF30080BDE80840CDE74E
S214006D1800000000BC15002078BA0400A3F5803AED
S214006D28704700BF154B002B08BF114B9D46FFF759
S214006D38F5FF00218B460F461148124A121A15F025
S214006D4897FF0C4B002B00D098470B4B002B00D01E
S214006D5898470020002104000D000B4816F0CEFAD4
S214006D6815F05EFF200029002AF0D3FA16F0B4FAD0
S214006D7800000800000000000000000008100020C6
S214006D8808100020F85F00206DD3010007B5012128
S214006D9820200DF1070200F0D9FE58B10223012188
S214006DA820200DF107028DF8073000F0DFFE03B053
S214006DB85DF804FB9DF807100229F8D0022209485E
S214006DC814F038FE022301210DF1070220208DF869
S214006DD8073000F0CBFE2AF020FA4FF4FA6000F0F5
S214006DE8C5FDE4E750B9030038B501F027F80128D7
S214006DF805D001F023F8022801D001F037F8064D37
S214006E082B783BB901F01AF80128044602D12AF07B
S214006E1877FA2C7038BD00BF5059002070B50C4664
S214006E28088800F00FFE94F844300546834214D0D4
S214006E3804F11C0630462AF0FFF984F844502AF07C
S214006E48FFF93221A06430462AF0F1F994F844108C
S214006E580248BDE8704014F0EDBD70BD78B9030077
S214006E6810B50446008800F0EDFDA37884F84400C9
S214006E78834202BF0123E3702371074B04F11C0011
S214006E88C4E9073400F0B8FE224620880349BDE866
S214006E98104000F0EFBD00BF03100300256E000091
S214006EA870B5C37804460D461646002B34D1D1B1CA
S214006EB8214814F0BFFD0123E370E36CA6600BB114
S214006EC8E06D9847E368F61A63699E4221D2217EF0
S214006ED81A480131C9B2217614F0ACFDA36D13B17E
S214006EE8217EE06D9847E5702AF0AAF915B3237954
S214006EF803BBA268238A801A83421BD20123104848
S214006F08237114F097FD236DA3B1E06DBDE87040C2
S214006F18184701232376E6E70029E4D1094814F048
S214006F2889FD636DE660E5702571002BDBD0E06DAA
S214006F389847D8E770BD00BF95B90300A6B9030007
S214006F48D4B90300C1B90300F8B51E4683880446C1
S214006F580D4617460BB18680F8BD817800882AF062
S214006F686DF80123E370084BE5802781A680C4E905
S214006F7803340C34204600F03FFE29462046BDE880
S214006F88F8402AF054B900BF4F10030010B5017935
S214006F980446B1FA81F1008849092AF0C6F8217931
S214006FA86088B1FA81F149092AF0BFF8034B1A68DC
S214006FB8A24204BF00221A6010BD00BFD4150020EC
S214006FC870B543790446A3B100880E4E04F108054F
S214006FD8336813B10C4B1B786BB121792AF0A5F8EE
S214006FE864210A4B3460A3602846BDE870402AF046
S214006FF81EB94088E9E7064814F01CFD054B322107
S214007008A360F1E7D415002051590020956F0000C1
S214007018EAB90300C96F000010B50446E0B10F488E
S21400702814F008FD01236371A37953B921792088E8
S2140070382AF07BF8236B7BB1606B0121BDE810401A
S21400704818472046FFF7A2FF04F108002AF0F4F8D4
S2140070582046FFF7B5FFEDE710BD00BF20BA0300D6
S21400706810B50446F8B1104814F0E4FC0023637128
S214007078A3796BB921792088B1FA81F149092AF0F8
S21400708854F8236B7BB1606B0021BDE810401847AD
S2140070982046FFF77BFF04F108002AF0CDF82046CB
S2140070A8FFF78EFFEDE710BD2BBA030010B50446B8
S2140070B868B1074814F0BEFC637920461BB1BDE8EA
S2140070C81040FFF7CDBFBDE81040FFF7A5BF10BDC5
S2140070D837BA030010B50E4C0E48214614F0AAFC29
S2140070E882210D4814F0A6FC82210220A21E00F080
S2140070F83DFD014630B134F8022C0848BDE8104082
S21400710814F098BC0648BDE8104014F093BC00BFC5
S214007118DE53002046BA030061BA03006CBA0300C7
S214007128B0BA030038B5114C82212246022000F07E
S2140071380DFDA51C014688B122880D4814F07AFC7E
S2140071482A460C4B03F12C0153F8040B8B4242F8E9
S214007158040BF9D11B7813702C23238035F8021CF6
S214007168054A0648BDE8384014F064BCDC530020E5
S214007178BBBA03003BBB0300DE53002019BB030069
S21400718810B504460146084814F054FC012C07487C
S21400719805D129F0B0FFBDE8104001F05DBABDE8A2
S2140071A8104029F0AABF00BF68BB03005C6300203C
S2140071B870B50024184D194E3378A34217DC002406
S2140071C8174D184E3378A34217DC0024164D174E79
S2140071D83378A34217DC00F031FE0128144818D192
S2140071E829F089FFBDE87040124800F039BE2846ED
S2140071F8FFF736FE01346035DEE7284629F061FFE2
S21400720801343435DEE7284629F094FF0134383552
S214007218DEE729F072FFE5E7A8200020575900208E
S214007228C824002058590020781E002056590020EF
S2140072385C630020897100002DE9F04F87B0FFF7E6
S21400724871FFAC4B05A8059329F09DFF054615F080
S2140072580BFCA94CC2B21F2A627004D9A74814F0C6
S214007268E9FB00F077FB2946A01C15F091FE05A85F
S21400727829F089FF054615F0F7FBC2B21F2A84F8E5
S214007288212001D99E48EAE7294604F1220015F094
S2140072987FFE05A829F077FF002604462578002DEE
S2140072A840F08480974CFFF783FF2378DFF894A29A
S2140072B8DFF89482944E00939AF8003098F80020ED
S2140072C83178924814F0B6FB98F800203378904F3F
S2140072D813449AF800204FF48270134422784FF62D
S2140072E8FF711344DBB2012B38BF01233A460293E1
S2140072F82B463D46029C01339C4213705080918079
S21400730802F10C02F6DC4FF0000B824C80497A48FA
S214007318AC6000F059FEE879AB6800EB400003EB80
S214007328800000F05DFCEB79DFF8FC910133EB712F
S21400733833785B4500F34A8200274FF00C09764AFB
S214007348DFF8CCB198F800003178B84200F35282E2
S21400735847180C21002501FB07B19AF80000942372
S214007368A8426E4A00F364820C2598F8003000277D
S2140073784FF070083678DFF8D4A11E44064405FBA3
S21400738806B5604B1B78BB4200F3658202996048DD
S21400739800F094FC059B57491A468B4240F06E82D3
S2140073A85F4807B0BDE8F04F14F044BB532D0FD12B
S2140073B863784C2B40F00C81A378502B40F0088162
S2140073C80122584B1A7005A829F0DDFE044665E729
S2140073D8582D35D8412DF6D9423D162DF3D801A3A0
S2140073E853F825F07574000049770000CF73000045
S2140073F8CF730000CF730000CF730000CF73000078
S21400740859750000CF730000CF730000B1740000F8
S2140074185B740000CF730000CF730000CF730000CA
S214007428CF73000047760000D9750000CF730000C0
S214007438CF730000CF730000CF730000B376000050
S214007448692DC0D1601C29F0ABFE80B229F0E1FEA0
S214007458B9E72D4B012019780023334A994202F1E7
S214007468A402B0DD02F8A20C0133F7E7601C00F0B6
S21400747855FB0546E01C29F0B5FE012102462846C4
S21400748800F09AFA60222948294C03785A43A11832
S214007498A5524FF4FA620A824FF448724A61254AA6
S2140074A80A65013303708EE7601C00F037FB002284
S2140074B834268046204F114600F07EFA38781F4D55
S2140074C806FB00F325F80380EA18E3781046693BC4
S2140074D818BF0123937029F0F4FD3B78002103FBC5
S2140074E806550126164A33441560516016743B70DB
S2140074F869E700BFDE5300207C62002087BB0300DC
S2140075089EBB03005259002055590020AEBB03000D
S214007518D815002050160020DC1A0020201900205C
S214007528FEBB030051590020DC1B002057590020E1
S214007538A82000206F11030058590020C8240020F6
S2140075485C6300205359002054590020D0170020AF
S214007558601C00F0E3FA00221146804600F02CFA80
S2140075683422CB4DCB4F287802FB00F327F8038054
S214007578F918E3780846693B18BF01238B7029F091
S214007588A0FDC54A00231146906BB8B901EB8311DC
S21400759834232A7802FB03738B635EB9BF4A3346EB
S2140075A8114652F8040B78B93422287800FB027288
S2140075B841F823202B7801332B7004E70133042B82
S2140075C802F14002E0D1E8E70133042BE9D1F1E704
S2140075D8601C00F0A3FA0746E01C29F003FE012110
S2140075E80246384600F0E8F96023AD4DAD4C2A78DF
S2140075F8A4205343E118E7524FF44873AA4F0B826E
S2140076084B61AA4BDFF8C8C28B653B7858430CEB36
S21400761800010CF800304FF4007048800320087111
S214007628887102EB420004EB401432200133DBB2CF
S21400763801324B718C6081F8A0002A7057E7601CF5
S21400764800F06CFA00224FF038088146984F114631
S21400765800F0B2F93B78974D08FB03F325F8039042
S2140076684FF00109EA1882F80490E3786BB1E01C41
S21400767800F054FA00220446114600F09DF93B78C3
S21400768808FB03535C8083F806908B48824A03788D
S21400769899015354397802EB8314C1EBC10205EB08
S2140076A8C20262634A1C3A70FBE6601C00F036FAB7
S2140076B80746E01C00F032FA0546601D29F092FDE8
S2140076C8044602460121384600F076F92246602430
S2140076D82846012100F070F9DFF8C4C1714A9CF809
S2140076E80030DFF8C8E104FB03F0111817524FF416
S2140076F84870C1F858E008824861591CC9B24C4322
S2140077081719155394246D4D38827861981C8CF897
S21400771800002878C7F858E04443694F03EB430352
S21400772801EB410107EB040C02EB431302EB411299
S2140077383855CCF80430CCF808200130287042E6DA
S214007748601C00F0EBF90746E01C00F0E7F90022A1
S21400775805461146384600F02FF90022382411460F
S214007768284600F029F95248524A03784FF0010E8D
S21400777804FB03FC02EB0C0122F80C704FF0000C23
S21400778881F804E081F806C003EB0E01C9B24C4349
S214007798171915539C1C047070244A4D87F806C0A8
S2140077A8287887F804E04443474FC3EBC303C1EB8C
S2140077B8C10107EB040C02EBC30302EBC102385508
S2140077C8CCF80430CCF808207044B7E7BBF1000FBB
S2140077D806D017F8053C03EB430304EB8304BC60B0
S2140077E83946484601F0E6F90BF1010B09F1A40900
S2140077F80C379DE579180AD0481E09FB00B0C079F9
S21400780800EB400004EB800409FB01B084601046DE
S21400781809FB0151039200F0CFFF31782B48394419
S21400782809FB015100F0FEFE039A0137403289E554
S214007838FD4218BF11F8050C03911EBF00EB40006F
S21400784804EB80048C6003FB052000F003FE03991C
S21400785801350C3181E5F74218BF15F8053C294675
S2140078681CBF03EB430304EB830408FB07A018BF05
S214007878AC6000F0C5FC01370C3582E513F8011D35
S21400788800297FF488AD3B2102F8011C83E500BF80
S21400789858590020C8240020DC1A00205C63002009
S2140078A857590020A82000205559002073110300BE
S2140078B856590020781E002054590020535900209D
S2140078C82019002052590020D01700206C1E0020D6
S2140078D8DC1B002007B5022101200DF1060200F08E
S2140078E835F938B9044814F0A5F8BDF8060003B011
S2140078F85DF804FB0020FAE71BBC030007B502216D
S214007908ADF806000DF10602012000F02FF9014639
S21400791810B1034814F08EF803B05DF804FB00BFFE
S2140079283CBC030010B5FFF7D5FF044601460748E0
S21400793814F080F80121064814F07CF824B9BDE854
S21400794810400120FFF7DABF10BD00BF6CBC030073
S2140079587EBC030008B5044814F06CF800F016F96D
S21400796829F05BFC29F056FC94BC030038B50446A5
S214007978084D094B28462B6000F03EF9002C18BF2E
S21400798821462846BDE8384008BF4FF4967129F0CE
S2140079984EBC00BFCC250020C711030010B5044C10
S2140079A8237823B9034833F050FD0123237010BD14
S2140079B85A590020C058040073B506460D461446AA
S2140079C8FFF7ECFF0E4A330AD35C8DF805608DF896
S2140079D804307DB1012C04D0032C09D000220121EB
S2140079E801E02246022101A801F086FE02B070BD21
S2140079F80022F7E704212A460DEB0100F4E700BF52
S214007A089E56040007B5064A030AD35C8DF805009F
S214007A1801A88DF8043001F0A3FE03B05DF804FB5E
S214007A289E56040007B5064A030AD35C8DF805007F
S214007A3801A88DF8043001F0BFFE03B05DF804FB22
S214007A489E56040007B50A4A030AD35C8DF805005B
S214007A588DF8043000230DF1030101A88DF80330DA
S214007A6801F0D6FE9DF8030003B05DF804FB00BFE6
S214007A789E5604002DE9F043214C85B006468846FC
S214007A889146FFF78BFF23781BB901F019FE0123F7
S214007A9823701C4A330AD35C30228DF80C3000233E
S214007AA8194F8DF80D6002FB03F4395DE51901BB2B
S214007AB801233B554FF0FF3304F1100013493844B7
S214007AC8AB606E80C5F80480C5F80C9008F068FEB8
S214007AD804F10801042239440D4B009503A801F06F
S214007AE8C5FEA96802460B4813F0A4FF05B0BDE81A
S214007AF8F0830133102BD6D1074813F09BFFF5E728
S214007B08595900209E560400F4250020CD11030084
S214007B18DF110300A1BC0300CFBC030080B10278CC
S214007B28A2F14103032B0BD840783038C0B208289E
S214007B3806D8054B134413F8413C40EA0320704727
S214007B484FF6FF70704700BF9E56040008B50B46F8
S214007B5842B101460448006802F0D0FFBDE808407C
S214007B6829F051BB022008BDC863002008B50B46A3
S214007B7842B101460448006803F048F9BDE80840E9
S214007B8829F041BB022008BDC8630020F0B50026D6
S214007B98124F8DB0FF2300930A223346386802A995
S214007BA82AF062F9C0B102AB1D4603EB800404E07C
S214007BB855F8043BB34228BF5E1CAC423868E9D986
S214007BC8296803F0A9FA0028F2D02D28F0D00DB0C5
S214007BD8BDE8F04029F017BB0DB0F0BDC863002023
S214007BE828B1034B0360034B436000238360704750
S214007BF81900000370630020FF2307B50021044A1C
S214007C080093083008F050FD03B05DF804FB00BF91
S214007C18311203000B4604490246086803490978EE
S214007C2808B129F014BB7047FC2800205C590020D6
S214007C38F8B50C4618B122210E4833F069FC2468C2
S214007C4823685E795F8830463946FFF7E3FF08B950
S214007C588120F8BD8568002DFAD0A368E27C3946F5
S214007C683046A84704460028F2D12DF0EFF9204602
S214007C78EFE700BFF7BC0300F8B515460D4A044603
S214007C8810680D4A0B46117850B1224629F0DFFAE3
S214007C98034628B100210C27C678B14201DB002034
S214007CA8F8BD07FB01F45A681019125BAA42F7D010
S214007CB80131F2E7FC2800205C5900202DE9F74F37
S214007CC804460D460026454B454F1860454B19702F
S214007CD833010021F85C01360FF0B0FD0C2EF7D109
S214007CE80C2D28BF0C254FF0000901953C4EDFF8F7
S214007CF800A13D4DDFF8FC80019B4B4502DC03B03C
S214007D08BDE8F08F23784FF0000B337063887380DC
S214007D18A388B380A379C6F80880B371E379C8F856
S214007D28005088F804304FF00003A768A8F806301B
S214007D38E3795B450ADC012116F8100B0FF07EFD8F
S214007D4808F1080809F101090C34D5E74FF00003DB
S214007D5838886B812880FB784FF0000C2B81BA7826
S214007D68C5F804A0002A00920CBF802240222A737D
S214007D7879680AF10C02634513DC03EB43030AEB4C
S214007D88830ABB6843B1009A4FF6FF71B2FA82F2D3
S214007D98164B52092DF0EAF814350BF1010B0C3787
S214007DA8C6E7B1F800E00CF1010C22F80CEC91F8EB
S214007DB802E00C3202F816EC91F804E00C3102F8F6
S214007DC815EC11F809ECBEF1010F14BF4FF0100EB8
S214007DD84FF0110E02F814ECCDE700BFFC28002087
S214007DE8444000205C590020002F0020397C000009
S214007DF80029002080310020014B1860704700BF22
S214007E08F828002070B5128805460E46FFF734FF9E
S214007E18044670B102790499806814F07BFF064B1B
S214007E281B680BB9002070BD314628462288984743
S214007E38F8E78620F7E700BFF828002008B50EF018
S214007E4899FD022806D0012806D0044B1878400071
S214007E58C0B208BD0120FCE70220FAE75B59002003
S214007E68014B1860704700BFF4280020034B1A78AF
S214007E781AB901221A700AF0DDBD70475B59002056
S214007E880022064B10B51A70054B1C682CB1FFF77C
S214007E98D5FF2346BDE81040184710BD5B590020A3
S214007EA8F428002037B50446002832D00EF062FDCC
S214007EB8022830D160892DF02BFCE079237A00382F
S214007EC818BF0120012B637A08BF40F008000BB1E9
S214007ED840F0100063890BB140F00400257CA188AF
S214007EE8A2790DB1E36873B90C4B10F083F82178CA
S214007EF8084610F0FBF82CF032FF002814BF0320C9
S214007F08002003B030BDCDE90035054B10F072F8FF
S214007F18EDE70220F5E70120F3E700BF080C0400B0
S214007F28D1DB030008B50CF0E3FE014630B1044887
S214007F3813F080FDBDE808400DF07EBA08BD00BF0E
S214007F4869BD0300034B044A5B7C012103201370C0
S214007F58FFF70CBE5C6300205D59002010B5044690
S214007F68FFF7F0FFB4F57F4F0BD100240A4B1A88B1
S214007F7813449C70FFF7AEF82046BDE81040FFF7A4
S214007F88F5BC4FF601739C4204D1BDE81040034887
S214007F9829F099B810BD00BFDC5300205C630020B0
S214007FA810B5074C012122460320FFF7CFFD28B95C
S214007FB82378044A003B18BF0123537410BD00BF42
S214007FC85D5900205C6300200822F8B54B4B30242E
S214007FD81A7032225A70DA709A71DA7135221A7269
S214007FE84FF400129C705C71454C3625C464454CB1
S214007FF842640465444C01228465444C1D71C46582
S214008008434C85184466434CC5678466424C434DCA
S2140080180467434CC0F880504467202480F87840B2
S21400802880F8844000F12104C0F888403D4C80F870
S2140080384820C0F88C403C4C80F85420C0F8944047
S2140080483A4C80F86020C0F8984080F86C20384C8D
S21400805880F8902080F89C20C0F8B830354BC0F8DF
S214008068A440C0F8BC300F24022380F8A84080F84B
S214008078C030314C314BC0F8AC40C0F8C430304C3E
S214008088304BC0F8B040C0F8C830092482232E4DC3
S21400809880F8B44080F8CC302C7C2C4BC0F8A0007C
S2140080A8C0F8D03044B12A4B80F8D820C0F8D43075
S2140080B805F11103C0F8DC304FF0000CCA798E6861
S2140080C802EB42039F00443006EB830326F807C002
S2140080D8586001200C349870DC701318CB71FFF7C9
S2140080E85FFFFFF7ABFE012806D12B7C23B1BDE866
S2140080F8F840154828F0E7BFF8BD00BF5E590020D5
S214008108B856040001002000B756040002002000FC
S214008118B656040003002000B556040005004200C9
S2140081280400420007003000B45604001200100194
S21400813800404200FDFF2100A2560400B25604008B
S2140081480600420000FF44015C630020DC53002068
S21400815801FF1001437B044A012113700078113097
S214008168C0B2FFF703BD00BF6859002038B5044603
S2140081780078054D11302A460121C0B2FFF7E6FC0B
S21400818808B92B78637338BD68590020024B53F83A
S214008198200029F043B900BFE0310020012908B5C6
S2140081A806D0022907D049B929F02FF9002008BDC2
S2140081B829F02EF9FAE729F02EF9F7E7024813F026
S2140081C839FC0120F3E700BF96BD030011461A46A6
S2140081D8024B53F82000FFF7E1BF00BFE031002054
S2140081E8002310B5044683810364A0F84430483061
S2140081F8FFF702FD014BC4E9123410BD0B1403004F
S21400820838B504460B781A4A43700D4642F82300E0
S214008218FFF7E6FF2046FFF7A9FF4FF44013236158
S2140082280123144A2375A261134A84F82030E261B8
S214008238124A84F82C306262114A84F83830A262F6
S21400824804F10C0222630F4A04F10D036263E36330
S214008258EA79A86802EB420300EB830110344C600D
S214008268094C40F82340094B8B60531CEB7138BD12
S214008278E03100206759002008002000026900202D
S21400828800FF300001FF100102010104D581000043
S21400829810B47024427B0D48013A012904FB020001
S2140082A806D0022908D059B95DF8044B29F0ADB8B4
S2140082B85DF8044B29F0ACB85DF8044B29F0ABB870
S2140082C803485DF8044B13F0B5BB00BFD017002079
S2140082D8B2BD0300B0F85C302DE9F0418B4204468D
S2140082E80E4638D0437B077C8BB31C4A12789A42DA
S2140082F82DD370251A4A013B05FB032390F80F80FF
S2140083081B7B424629F098F8B845054601D1FF2858
S2140083181FD13A463146204694F8903029F08CF81A
S2140083282F460546552212216078A4F85C6028F08E
S214008338B0FFFF2F03D039462046FFF7A9FFFF2DD1
S21400834809D029462046BDE8F04129F0B5B8FF25F2
S214008358DFE70746E6E7BDE8F08100BF5259002090
S214008368D017002041688268C978D27849B112B11E
S2140083780321FFF7AFBF837B002B0CBF012102212F
S214008388F7E72AB1837B002B0CBF02210121F0E717
S214008398014813F04FBB00BFC3BD0300037BD3B136
S2140083A84368DA7812B18268D278A2B91B7933B1F9
S2140083B8837B002B0CBF04210521FFF78BBF836846
S2140083C81B792BB1837B002B0CBF05210421F4E716
S2140083D8014813F02FBB7047F5BD0300084A437BDE
S2140083E805211370837B5370C37B9370037CD37013
S2140083F8037B137100780E30C0B2FFF7B7BB00BF1F
S2140084086959002038B5044600780C4D0E302A46C7
S2140084180521C0B2FFF79AFB20B1BDE838400848EE
S21400842813F008BB2B7863736B78A373AB78E3738E
S214008438EB7823742B79237338BD00BF6959002065
S21400844831BE0300024B53F8200029F07FB800BF66
S21400845808320020F8B504460B78424A43700D46A9
S21400846842F82300404E29F08FF8FFF7CBFF6268EA
S214008478A3683E483E49D6641165D4655065C3E98D
S2140084881410DE64DC654FF09873022663610123DE
S21400849804F10C01E16137491032216204F10D0143
S2140084A8A16235492376E16204F10E01616333491E
S2140084B884F82430A16304F10F012164304984F85C
S2140084C83030616404F11001E1642E4984F83C30D0
S2140084D884F84830216584F85460A265E879A9686C
S2140084E800EB400201EB820704F1140CC7F804C045
S2140084F84FF4817C244F41F82270C218D2B202EBA6
S214008508420241F822C001EB820700227A601F4A25
S21400851884F8703022661E4A84F88830A2661D4A9F
S2140085281D4BE2661D4AC4F88C3062671C4A8319E4
S214008538A26704F15C02C4F88020DBB2194A03EB98
S2140085484303C4F8842084F8646084F87C6001EBF4
S214008558830260345460144A033041F82320E871DB
S214008568F8BD00BF083200206D8300001715030011
S214008578A58300000100200102001001030030015D
S214008588040030010500210101FC01064A00210013
S214008598BA56040051001000BC560400BD5604002C
S2140085A8550021006F0018001200010470B50D4632
S2140085B80646144613460A460146164813F03AFA83
S2140085C825B92046BDE87040FFF7C8BC072D05D181
S2140085D821463046BDE8704000F0B2BA4FF6014377
S2140085E89D4205D121463046BDE87040FFF72ABFB8
S2140085F8062D05D121463046BDE8704000F096B8F5
S214008608B5F5817F05D121463046BDE87040FFF7B5
S214008618BDBD70BD60BE03000148FFF7EDBB00BFDF
S214008628B58500004FF4C01330B50360012303710D
S214008638074B8C688360CA7902EB420304EB830518
S2140086486860044844F82300531CCB7130BD00BF53
S214008658BE5604000400010138B50024044D55F840
S214008668040B08B128F0A0FF01340A2CF7D138BD56
S21400867830320020042908B509D15AB113781BB93D
S21400868828F0BDFF002008BD28F0AFFFFAE7024833
S21400869813F0D0F90120F6E793BE030011461A46F8
S2140086A8024B53F82000FFF7E5BF00BF303200202A
S2140086B80229024608B50ED004D839B9104628F063
S2140086C89EFF06E04029F9D0412907D1104628F038
S2140086D88CFF002008BD28F09CFFFAE7024813F03C
S2140086E8A9F90120F6E700BFB3BE030011461A46F3
S2140086F8024B53F82000FFF7DBBF00BF30320020E4
S214008708426B094B52791A7082785A70C2789A70FE
S214008718826B12B190F83C20DA7000780421093098
S214008728014AC0B2FFF722BA6E590020024B53F82E
S214008738200028F08ABF00BF3032002038B5044633
S2140087480078084D09302A460421C0B2FFF7FEF922
S21400875830B96B78A370AB78E370EB7884F83C306C
S21400876838BD00BF6E59002038B504460078114D54
S21400877809302A460421C0B2FFF7E8F9C8B9A37839
S2140087882A78022B0CD004D863B9204628F037FF85
S21400879801E0FF2B0AD02046BDE8384028F004BF89
S2140087A8002AF2D1204628F020FFF4E7002AF9D163
S2140087B8EBE738BD6E590020F8B504460B78284A12
S2140087C80D4642F823004370FFF7B8FF636B254A4F
S2140087D85C631A632046FFF7C7FF204628F0E4FECE
S2140087E84FF4801363600123626BA66B0532E26068
S2140087F81D4A23722261A21C2375A26166B11B4A18
S21400880884F82030E261E21C6262194A84F82C304F
S21400881804F13C03A26223630627EA79A96802EBFF
S2140088284203002E21F8237001EB83000CBF0223BD
S2140088380423C370012383700E4B04348360531CD7
S2140088484460DBB20C4C03EB430341F8234001EBD6
S214008858830000234360094B02328360EA71F8BD47
S214008868303200202F1603000340300101FF30018C
S21400887802FF1001F586000008000100A58600002A
S21400888802464179D37808480139042B00EB811059
S21400889808D8012B04D80BB928F0A7BE28F0AFBE1D
S2140088A828F0B7BE704700BFDC1A002002464179A0
S2140088B8D37808480139042B00EB811008D8012B1F
S2140088C804D80BB928F09BBE28F08FBE28F0A1BEAE
S2140088D8704700BFDC1A002030B587B004464579DB
S2140088E8FFF7ACFA012822D1E2786B1E042A1ED8BC
S2140088F8DFE802F00431031F2800104663784FF4BF
S21400890880728DF804304FF48273ADF80630062373
S214008918ADF8083001238DF80B3000238DF80A00D7
S21400892801A8CDE903238DF81430FFF7BBFA07B08A
S21400893830BD0A4A02EB83135B6B5B79181E18BFBF
S2140089480120DBE7054A02EB83135B6B5B79B3FA1E
S21400895883F04009D2E70020D0E700BFDC1A0020E9
S21400896830B587B004464579FFF768FA012829D15B
S214008978E3786A1E042B25D8DFE803F00B0B0B03FD
S2140089882600164B03EB82135B6B5B79003B18BF24
S214008998012362788DF80A308DF804204FF482722D
S2140089A80123ADF8062006228DF80B30ADF8082016
S2140089B800234FF4807201A8CDE903238DF8143004
S2140089C8FFF770FA07B030BD044B03EB82135B6BFE
S2140089D85B79B3FA83F35B09DBE700BFDC1A002098
S2140089E810B586B00446FFF729FA012812D1637835
S2140089F8094A8DF804304FF48273ADF806304FF408
S214008A088073CDE90223002301A804938DF814305F
S214008A18FFF748FA06B010BD0800070110B586B083
S214008A280446FFF70BFA012820D16278104B8DF820
S214008A3804204FF4827294F8A01094F8A10059709C
S214008A481870ADF8062004934FF480720223094983
S214008A5801A88DF81430CDE90212FFF723FA94F82E
S214008A68A130013B18BF012384F8A13006B010BD21
S214008A78725900200800050110B583780446E3B152
S214008A880379022B06D143790C48013B00EB83108F
S214008A9828F0BFFDA379022B02D12046FFF71CFF62
S214008AA82046FFF7BBFF02236078A4F86C305522F7
S214008AB8BDE81040122128F0ECBB10BDDC1A0020DF
S214008AC84388094A082113808388538083681B8A51
S214008AD8938090F8A03093718379D371007804302E
S214008AE8C0B2FFF743B800BF5E54002038B50D4645
S214008AF804460178104812F09DFF4FF602739D4217
S214008B080CD163791BB10D4A12789A4201D201231F
S214008B1863712046BDE83840FFF7D2BFB5F57F4FF2
S214008B28F7D1204628F0EEFDA378022B0CBF0122D1
S214008B380022A3689A70ECE7CFBE030054590020C1
S214008B48024B53F82000FFF7D1BF00BF5832002071
S214008B5838B504460078134D04302A460821C0B2BA
S214008B68FEF7F4FF20B1BDE838400F4812F062BFA8
S214008B782B8863806B88E978A380AA88A3681A8202
S214008B88AB7984F8A030EB79A37119B1074B1B7841
S214008B988B4205D2064812F04DFF237801336371E5
S214008BA838BD00BF5E540020E9BE030054590020BB
S214008BB812BF0300F8B504460B78474A0D4642F83C
S214008BC823004370FFF7C4FFA268444BD465D36400
S214008BD8434B02265365434BA11C13654FF44013C1
S214008BE8E36001236161E1623F4910322163226537
S214008BF8211D3E4AA1633E483E49626504F1A00233
S214008C08A061E163E265E01C611D3B4A2062616485
S214008C183A483B492266A21D2374237784F82830F5
S214008C2884F8343084F84030A16484F84C6084F8C2
S214008C38583084F864306062A266E879AA6800EB67
S214008C48400102EB810704F10C0CC7F804C04FF092
S214008C58060C2C4F42F82170C118C9B201EB41012D
S214008C6842F821C002EB810700217960264F84F87C
S214008C7880302767254F84F89830A767244F254B00
S214008C88E767254F84F8746084F88C60C4F89C30D5
S214008C9804F16C06831CC4F88470C4F890601F4FF7
S214008CA81F4EDBB203EB4303C4F89460C4F8887025
S214008CB802EB83067034746008261A4C42F8234088
S214008CC8C31CDBB203EB430302EB8304043042F815
S214008CD823606160E871F8BD5832002079160300F9
S214008CE8BB160300818A000001FF300104FF200143
S214008CF81000300102FF200105FF300100FF30019F
S214008D0803FF2101070001084A002100C05604009D
S214008D1851001000C2560400C35604005500210036
S214008D286F0018001200010400239B6AB3F5C04FB9
S214008D3803D21968064A914203D000230370836061
S214008D487047012202709A689B694260F7E700BF85
S214008D5807B0CD5E024B034A1A6029F09DBE00BFDD
S214008D680000002002020FF073B5534B04461A7831
S214008D781AB102221A7002B070BDCDE9002200288E
S214008D88F9D001261E7032F03FFB4C4D4C4B186054
S214008D9817F052F82B785BB902F062FA40B94948E6
S214008DA80823494A4949006801F0A8FE00B92E7010
S214008DB8474B5A6E62619B6E464AA3614FF4004366
S214008DC8936603F188435968E16143499960196ECF
S214008DD82160596E6160D3F87011A160196CE1606A
S214008DE8596C21613D49086C1864496C5964012125
S214008DF851664FF4005191661A6E560436D53849B6
S214008E08CA68D407FCD45B6E5A0434D5354AD36B8B
S214008E1813F0430FFBD1344B1A68531C31D04FF470
S214008E2800139340314A13660423304C6846236681
S214008E384FF480632366102323664FF4005323669B
S214008E484FF0804323664FF4804301A9636628F0F9
S214008E5871FC009B2366019B63662B78002B8AD0E7
S214008E68194B1A6822665B68636684E72049CA68F5
S214008E78D007FCD4C7E71F4AD36B13F0430FFBD1C8
S214008E88C9E71D4B1B78002BCED14FF48072114BCF
S214008E985A661A4A52681AB94FF40011134A1166EC
S214008EA84FF400725A66164B5B68002BBCD14FF421
S214008EB880020E4B1A66B7E77559002076590020CF
S214008EC8A0320020C8630020A432002000710800E9
S214008ED8008000500090005055CEAC0000C00054F2
S214008EE8000004400000024C9463002000900044F8
S214008EF8000004500000025C7459002000C00550B1
S214008F080000065070B52C4D04462E78012E02D06F
S214008F1801232B7070BD0028FCD028F030FC0130EF
S214008F280BD028F02CFC40F20113984205D0234BB6
S214008F38234A5E66D368DE07FCD4224B22491B6EA2
S214008F4813F0040F4FF4005314BF1C4A1F4A9366CD
S214008F58CA6B12F04302FBD121681A4B1966616886
S214008F685966A168C3F87011E168196421695964E3
S214008F78E169C80748BF9A60154B1A6801320DD1D7
S214008F88144A127852B914494968C90748BF1A6082
S214008F98124A5268D20744BF01221A606269104B0F
S214008FA85A66A2699A6616F04FFF0E4B186832F09A
S214008FB826FA0023ADE700BF755900200090004050
S214008FC800000440008000440000024C009000505E
S214008FD8946300207459002000C005500000065015
S214008FE800800050A032002070B50024A36AB3F5B4
S214008FF8C04F23D21A68134B9A421FD1124E3378A9
S21400900813F0FD0518D14FF480341048FFF7ACFE76
S214009018032004F031FA0E4B0320DC6004F010FA4B
S2140090280C4B1C61AB6ADB69984704460748FFF798
S21400903869FF0CB901233370204670BD4FF4817464
S214009048FAE700BF07B0CD5E7459002080320020D2
S21400905800A000440090004413B5204B1B7803B9C9
S214009068FEE700231E4CCDE900336A4608231D4957
S214009078206801F043FDF8B91B4AD2F84031D2F80F
S21400908840211F2B4FF0010311D9203A9340019A33
S2140090981A43019208236A461249206801F0B6FE70
S2140090A8124B134A1A6029F0F7FC02B010BD934021
S2140090B8009A1A430092EDE72D28F1D10A4AD2F811
S2140090C84031D2F840211F2B4FF0010385BF203ACC
S2140090D893409340019398BF0093DBE775590020AF
S2140090E8C8630020007108000080004400000020CB
S2140090F80B020FF038B50025AB6A0446B3F5C04F2F
S21400910810D21B6BB3F5C04F0CD20748FFF72CFEE6
S214009118AB6A20461B6B5B689847BDE83840024838
S214009128FFF7F0BE38BD00BFAC32002013B50024F0
S214009138A36A0190B3F5C04F13D21B6BB3F5C04FAB
S2140091480FD20948FFF710FEA36A01211B6B01A87E
S2140091589B69984704460448FFF7D4FE204602B0A9
S21400916810BD4FF48174F9E7AC32002070B50026C4
S214009178B36A0446B3F5C04F0D4612D21B6BB3F55F
S214009188C04F0ED20848FFF7EFFDB36A20461B6BA8
S21400919829469B69984704460348FFF7B3FE2046CE
S2140091A870BD4FF48174FAE7AC32002070B5002623
S2140091B8B36A0446B3F5C04F0D4612D21B6BB3F51F
S2140091C8C04F0ED20848FFF7CFFDB36A20461B6B88
S2140091D82946DB69984704460348FFF793FE20466E
S2140091E870BD4FF48174FAE7AC320020F8B500275A
S2140091F8BB6A0446B3F5C04F0D46164611D21B6B24
S2140092087BB10948FFF7B0FDBB6A20461B6B3246A8
S21400921829465B6A984704460348FFF773FE2046CC
S214009228F8BD4FF40174FAE7AC32002070B500269A
S214009238B36A0446B3F5C04F0D4612D21B6BB3F59E
S214009248C04F0ED20848FFF78FFDB36A20461B6B47
S21400925829469B6A984704460348FFF753FE20466C
S21400926870BD4FF40174FAE7AC320020F0B5002761
S214009278BB6A0446B3F5C04F0D461646ADF5177DD6
S21400928820D21B6BB3F5C04F1CD21048FFF76CFDFD
S214009298BB6A20461B6B40F251225B6A01A99847BD
S2140092A8044630B10948FFF72DFE20460DF5177D18
S2140092B8F0BD836A32461B6B2946DB6A01A89847CD
S2140092C80446EFE74FF40174EFE700BFAC32002026
S2140092D810B50024A36AB3F5C04F10D21B6BB3F5C4
S2140092E8C04F0CD20748FFF73FFDA36A1B6B1B6BEA
S2140092F8984704460348FFF705FE204610BD01249C
S214009308FBE700BFAC320020F0B58FB0044601A8DA
S2140093180E461546FFF7EEFE9DF80C30012B12D1CF
S214009328B5F5002F27D8B4F5002F24D86319B3F560
S214009338002F20D821462A46304613F029FE00245E
S21400934820460FB0F0BD0027BB6AB3F5C04F15D254
S2140093581B6BB3F5C04F11D20A48FFF705FDBB6A71
S2140093682A461B6B314620465B6B984704460548E1
S214009378FFF7C8FDE4E740F20244E1E740F20114D3
S214009388DEE700BFAC320020F0B58FB0044601A877
S2140093980E461546FFF7AEFE9DF80C30012B1FD182
S2140093A8B5F5002F06D8B4F5002F03D86319B3F522
S2140093B8002F13D940F2024420460FB0F0BDE25801
S2140093C8013225D104339D42F9D82A463146204633
S2140093D800F082F80028EDD00024EDE70023F2E73D
S2140093E80027BB6AB3F5C04F15D21B6BB3F5C04F49
S2140093F811D20A48FFF7B8FCBB6A2A461B6B3146EF
S21400940820469B6B984704460448FFF77BFDD3E746
S21400941840F20344D0E740F20114CDE7AC32002016
S21400942870B58EB0044601A80D46FFF763FE9DF89A
S2140094380C30012B22D144EA0503C3F30C03002B9E
S21400944833D1B5F5002F04D940F2024420460EB0B9
S21400945870BDB4F5002FF7D82544B5F5002FF3D81E
S214009468204604F5005400F029F8AC4202D0002843
S214009478F6D1E9E70028E7D00024E7E70026B36A34
S214009488B3F5C04F14D21B6BB3F5C04F10D20A48C1
S214009498FFF76AFCB36A29461B6B2046DB6B9847C6
S2140094A804460548FFF72EFDD0E740F20444CDE712
S2140094B840F20114CAE700BFAC3200204FF4003275
S2140094C808B5044B9A6632F033FAB0FA80F04009D1
S2140094D808BD00BF00900050134610B562B10343A4
S2140094E89B070BD14FF40034054B9C6632F024FAE8
S2140094F8B0FA80F0400910BD0120FCE70020FAE72A
S21400950800900050BFF34F8F0549064BCA6802F417
S214009518E0621343CB60BFF34F8F00BFFDE700BF89
S21400952800ED00E00400FA0570B5D0B1C9B10E4EE2
S214009538431E013913F8014F2046325D02F003023C
S214009548012A11F8012F08BF04F12000B55C05F0C8
S2140095580305012D08BF2032801A01D1002CE9D15D
S21400956870BD0120FCE700BF557E04000348044A8E
S2140095780449121A921028F067B900BF406100002B
S214009588186300009460002008B5154B83F30A881A
S21400959800F030F8FFF7EAFF124B13498B4212D35C
S2140095A80020124B12498B4218D3FDF7BBFB1868F4
S2140095B850F82240586840F82240013298688242A3
S2140095C8F5D30C33EAE70022F8E71C6844F82200D3
S2140095D801325C68A242F8D30833E4E70022F8E7D1
S2140095E80800002080BA04008CBA04008CBA040074
S2140095F88CBA04004FF40041134B144A70B59A60B5
S214009608D3F88820124D42F47002C3F88820114A15
S21400961805F5005491664FF0FF3222664FF6DF726A
S21400962862660222C3F8D020BFF34F8FBFF36F8F56
S2140096384FF44036032003F01FFF0320E66003F0D4
S214009648FFFE2E6170BD00BF00ED00E00060000068
S2140096580080004400900050054B1860054B1B6FB7
S21400966803F00703032B01D130F01AB8704700BF88
S214009678A4630020008000502DE9F04104464FF016
S21400968801080C250D4E0CB9BDE8F08194FAA4F03B
S214009698B0FA80F00F2808FA00F2C8BF103824EA9B
S2140096A80204CABF05FB006205FB0062B4325768B5
S2140096B8002FE8D09168C0B2B847E4E7CC32002063
S2140096C808B50C4831F0C1FE192003F0C7FE28B1D2
S2140096D8192003F0D1FE192003F0B2FE1A2003F079
S2140096E8BDFE28B11A2003F0C7FE1A2003F0A8FE14
S2140096F8002008BDC05804002DE9F0410E46174664
S214009708054618B30F2923D80378DBB1013BDBB233
S214009718022B19D8104AD35C6A78D340DB0717D5D2
S2140097280E4BD3F81043ACB931F06EFE80463A467D
S2140097382846314602F0DCFD404631F060FE204601
S214009748BDE8F0817F23E7E70023E5E72224F6E774
S2140097582124F4E70224F2E71457040000C003505B
S21400976810B5044610B30378E3B1013BDBB2022B15
S2140097781AD8104AD35C6278D340DB0718D531F084
S21400978843FE0122617823788A4030214B4341F218
S214009798100103F1A04303F570335A5031F02FFE41
S2140097A8002010BD7F23E6E70023E4E72220F8E741
S2140097B82120F6E71457040010B5044610B30378C2
S2140097C8E3B1013BDBB2022B1AD8104AD35C6278AD
S2140097D8D340DB0718D531F017FE012261782378CD
S2140097E88A4030214B4342F2100103F1A04303F5AF
S2140097F870335A5031F003FE002010BD7F23E6E791
S2140098080023E4E72220F8E72120F6E714570400AF
S21400981838B50D46044618B311B30378E3B1013BD7
S214009828DBB2022B1AD8104AD35C6278D340DB0727
S21400983818D531F0E9FD30222378534303F1A043CD
S21400984803F570335B696278D34003F001032B702D
S21400985831F0D5FD002038BD7F23E6E70023E4E796
S2140098682220F8E72120F6E7145704002DE9F041F6
S2140098780D4616469846044600284FD000294DD077
S2140098880178002940D04B1EDBB2022B3ED8254A71
S214009898D25C6378DA40D20701D4FF2940D1022E81
S2140098A801D9042E3CD131F0AFFD23780746FF2BB3
S2140098B805D032462046296802F060FD28602B68ED
S2140098C8013309D12378FF2B06D1174B6078D3F8DC
S2140098D8241428F004FD286029684B1C18D00C2393
S2140098E8124A03FB0122069BC2F804809360237881
S2140098F8FF2B04D001230E4A8B40C2F82434384686
S21400990831F07DFD002007E07F22C2E70022C0E795
S214009918384631F074FD2D20BDE8F0812220FBE7A3
S2140099282120F9E71457040000C00350CC32002069
S21400993800D0035008B502F0D1FC054B00F05530B6
S21400994820F05020C3F82004BDE80840FFF794BE76
S21400995800E0035008B502F0C1FC054B00F0AA3041
S21400996820F0A020C3F82004BDE80840FFF784BE16
S21400997800E003502DE9F04F144605460E469B4678
S214009988C36B87B001225B6902A960689847EB6BD6
S21400999801225B6903A93046984702A828F053FBC2
S2140099A8074648B10023A37563754FF0FF33A360DD
S2140099B8002007B0BDE8F08F03A828F051FB01236C
S2140099C8A375237E04EBC303DE611F846368B3427A
S2140099D80ED1206003A828F065FB4FF0FF332075F2
S2140099E8A360237D043B022B26D80023A375DFE75C
S2140099F823681A1A53425341A37503A828F052FB4A
S214009A08237D834218BFA77503A828F02DFB0746B9
S214009A1802A828F029FB874218BF002303A818BF0E
S214009A28A37528F029FB074602A828F025FB8742DD
S214009A381CBF0023A375D4E703A828F015FB80B144
S214009A48EB6B022230465B6904A9984704A828F005
S214009A581AFB0346207D032839D8DFE800F038389B
S214009A68040903A8F3E7CC22237E04EBC3031A8475
S214009A7801F06EFC109B187003A8277E28F0E8FA01
S214009A8804EBC70787F82200237E03A804EBC3036A
S214009A98B3F8209093F8227028F0E6FA804603A8D8
S214009AA828F0EAFA8246B8F1000F15D0EB6B0222CE
S214009AB830465B6904A9984704A828F0A9FA607597
S214009AC8637D6BB90023A3754FF0000838E0227E4B
S214009AD804EBC2021384CBE703A828F084FAEEE767
S214009AE894F81680B8F1000FEED0B9F1000F09D13E
S214009AF8DFB10123E375637E002B4FD1012F42D1DE
S214009B08677614E06B6C06EB0A015A4286EA010097
S214009B1810421CBF0022A2755A1E0A409B1A99457D
S214009B28D0D8A37D002BE3D1CEE7E37D43B94FF031
S214009B3800084B4652463146284627F0CFFFA0601D
S214009B48A27D12B123694B4423611A49237E097802
S214009B5899422AD901332376BBF1000F27D032B3B6
S214009B68E37D23B3B8F1000F21D1032F1FD0A168DE
S214009B784B1C1CD0109B2246009328460123FFF757
S214009B88F9FEA07513E095F8343063B9EB6A013333
S214009B98CFD1032FCDD10123A376C8E7012FCFD08D
S214009BA8032FC4D1F7E79846C3E70023A375A07D23
S214009BB8FFE600BF385704002DE9F04F0E469846DA
S214009BC800238BB004464FF0FF31104617468DF839
S214009BD8133001F0A7FBB6F5801F20D2314605AA40
S214009BE804F1080028F081F9451C014603D1237CBE
S214009BF8BBB92D2010E0384601F094FB0122394607
S214009C0820460DF1130327F0BBFF0028EFD09DF880
S214009C18133088F8003000200BB0BDE8F08FB01C79
S214009C28E5D1E56A691C36D12046616A27F09CFEB4
S214009C380546B31C18BF0123DFF8CC900193636A6E
S214009C48626C0293236805A902FB053AE36B0522BA
S214009C585B695046984705A828F090FA28F0B3FAAA
S214009C68504628F0BBFA4FF0000B824601464B1CC4
S214009C7805D0636C81EA0A025B42134211D029467A
S214009C88204627F071FE029BAB422CD0BBF1000F9A
S214009C982CD10546D3E72368ED1A636CB5FBF3F5BC
S214009CA8C7E7484601F03EFB0DF113034946204638
S214009CB8019A27F065FF034690B1B21C03D0D9F885
S214009CC80020B2420CD19DF8132003930D4B88F860
S214009CD8002049461A68384613F05AF9039B9B46F3
S214009CE8D9F80810C3E7BBF1000F82D0B6F5801F7D
S214009CF891D2314698F800307A6804F1080001F0ED
S214009D083FFA88E734570400A83A00202DE9F341C3
S214009D180446174698460E46184D816AE36A8B42F3
S214009D2801D04B1C02D102B0BDE8F081284601F0F4
S214009D38F9FA0122294620460DF1070327F020FFED
S214009D4838B14346294620469DF80720B8470028DC
S214009D58E9D0A9684A1C04D16968204627F091FE14
S214009D680146012EDAD16B6881EA0302636C5B4216
S214009D781A4218BF4FF0FF31D0E700BF7C3A0020E8
S214009D882DE9F04F4FF0FF334FF6FF7200250446DB
S214009D9800F10806C0E909238BB0C36205620563B3
S214009DA83046884628F072F8204627F0ADFD60BB9E
S214009DB82046414627F028FE204627F0A5FD60BB32
S214009DC85E200BB0BDE8F08F2368E26B606C5769C5
S214009DD800FB0530052205A9B84705A828F0CEF9E6
S214009DE8012807460CD12946204627F0DEFD012F1C
S214009DF8024600D101322946204627F0A4FD03E09A
S214009E0828F0E6F90028EED10135E3699D42DBD358
S214009E18204627F079FD0028CAD000254FF0FF39E4
S214009E284FF6FF73CA46A846C4E90853E36998453F
S214009E380AD3A5EB0905012D2CD84FF6FF72636AE5
S214009E4893423CD16720BCE72368E26B606C576995
S214009E5800FB0830052205A9B84705A828F08EF9A2
S214009E68834605A828F061F90746584628F0ABF956
S214009E7868B1574538BFC4F82480B94528BFB946E5
S214009E88BD4238BF3D46BA46236A0133236208F10D
S214009E980108CBE74FF6FF7300256362E3699D422E
S214009EA8CBD2676C2068E36B052207FB05005B696D
S214009EB805A9984705A828F038F90135EEE7E26BBA
S214009EC8676C2068694607FB030055690522A847A2
S214009ED8684628F02AF9626A2368606C4B4D00FBD6
S214009EE8023028F07BF94FF0FF33A062E3622A467F
S214009EF86FF00101204605ABFFF75EFE002846D14D
S214009F08AD6829462046E56227F0DAFC206320B9CA
S214009F182046E16A27F0B5FDE0622946204627F08C
S214009F28B0FD0546A36A9D4233D1204627F09BFC28
S214009F3800278046B946E36999453CD3B84559D9C0
S214009F482046616A27F010FD0026054604F1400AFF
S214009F58B74212D8626C2368694602FB0539E36B80
S214009F6805225B6948469847684628F0DEF8534657
S214009F7802464946E06B28F033F92946204627F082
S214009F88F3FC0136B0450546E2D1642019E7A56A18
S214009F98B7E72946204627F093FC236B2946034457
S214009FA807462363204627F06CFD0546002FB9D1E7
S214009FB8C4E90B07B6E7636C2568052203FB095559
S214009FC8E36B05A95B692846984705A828F0D6F8E4
S214009FD828F0F9F858B1284628F000F90146204636
S214009FE827F06EFC636C143B984208BF013709F1F2
S214009FF80109A0E7304627F049FF00232046194606
S21400A008034AFFF783FE0020DBE600BFD43A0020B1
S21400A018771B03002DE9F041036B9046826B0768B7
S21400A0289A4288BF8363426C436A90B002FB037708
S21400A038C36B0E46052201A95B6904463846984755
S21400A04801A828F09BF801280146307057D0656CA7
S21400A058E26B2368606AD2F814C005FB003005225C
S21400A06806A9E04706A828F089F801284FF0000559
S21400A07823D0D4E90A3201219342CDE90B458DF865
S21400A08834800E958DF83C102AD11946204627F0C4
S21400A098F8FC236B626C14339B1AE06223630C9BF8
S21400A0A853B99DF83C303BB1626A616C2368E06B3B
S21400A0B801FB023128F01AF80C9DE36B05225B6958
S21400A0C801A93846984701A828F058F8307028465D
S21400A0D8236BA26B9A4288BFA36310B0BDE8F081D9
S21400A0E8237C33B91C490BAA04F1080001F096F842
S21400A0F8D5E72046194A0BABFFF708FECFE7237CC7
S21400A10823BB2246164904F1080001F087F8616A65
S21400A118204627F04AFC616A421C204627F013FCBA
S21400A128054620B9236B626C1344143B2363204610
S21400A138A16A27F0A6FC2368A062C01A636CB0FB6D
S21400A148F3F06062204627F0DFFCB6E700232046DF
S21400A158044AFFF7DBFDDAE7C1A800003DA80000C7
S21400A168111C0300AD1B030073B50D46D11E4A42F1
S21400A1781C461B7E4A419A4226D129682368994282
S21400A18822D3636899421FD8114E0DF10703324651
S21400A198FFF712FDC0B972686B689A4214D19DF831
S21400A1A80730DA1E53425341227E93420CD163692C
S21400A1B801336361D4E90323934205D22968A26870
S21400A1C842F8231001332361012002B070BD00BF9E
S21400A1D8D43A00202DE9F04F9B4689B09DF84830C8
S21400A1E89046514A0193136907465B450D46C0F0F1
S21400A1F89580D94653680093B9F1000F7BD0FB6B66
S21400A20801225B6905A90098984705A827F028FF4A
S21400A218454B1B68984240F0848005A827F02CFF21
S21400A2280428064615D105A827F02DFF009B0446EE
S21400A2381E44019B002B3ED1804512D91C46A8EB34
S21400A24800083846009927F01CFCA9EB0409009082
S21400A258D2E7FB6B02225B69009806A9984706A816
S21400A268E2E7A0EB08045C4528BF5C46032C46449E
S21400A278ABEB040B1DD9FB6B294630465B69A2087D
S21400A288984724F0030304F0030A1E441D44DDF82F
S21400A2980480BAF1000FD4D0FB6B012206A9304621
S21400A2A85B6998475246284606A912F071FE55443F
S21400A2B8C7E7A246EBE7824600F0030302932B1893
S21400A2C803930644039BA6EB0A00A3EB0A05029B2E
S21400A2D89A4514D1BAF1000FB3D0FB6B012206A938
S21400A2E85B6998475246284606A913F00DF80028D9
S21400A2F8DDD04FF03609484609B0BDE8F08FFB6B55
S21400A308012206A95B6998470422284606A912F086
S21400A318FBFF0028EDD1AAF1040AD3E74FF0630942
S21400A328E9E74FF06F09E6E7003B00202DE9F0412A
S21400A3380F4616469846044688B060B390F83450E0
S21400A348FDB1012127F0D5FA00210E9BCDE90511B4
S21400A358CDE902379DF83C30CDF804808DF81C30E6
S21400A368237C04968BB90D4901AA04F1080000F075
S21400A37855FFDDE90553E06B002E08BF1D4627F0A4
S21400A38851FC284608B0BDE8F0812046044A01ABD7
S21400A398FFF7BCFCEDE70546F3E700BFDB1B030051
S21400A3A871A100007FB590F84260044601920DF155
S21400A3B80B030A463046114927F03CFC012E054699
S21400A3C8E36B17D132465B6903A998479DF80B10D3
S21400A3D8039B019A59B19BB243EA024301222846DD
S21400A3E80393E36B03A99B69984704B070BD62F3B7
S21400A3F80F03F3E701229B6901A9F5E7003B00205C
S21400A4082DE9F04F99B00E460D920A69416C0B93F0
S21400A4181439D31DB3FBF1F3013302EBC302036B0C
S21400A42804469342C0F001820023DFF804940893A0
S21400A438E36A48461946059300F074FFD6E90337E1
S21400A44807930B9B022B4DD1CC2F40F0D7810D9B49
S21400A4583BB13146204627F043FC656C149001203A
S21400A46844E00120079B656C1B68149300F001000C
S21400A47800280CBF04230823782F0E9349D8059A82
S21400A4886B1E1340ED1A3B1D9D423CD2002F3DD05B
S21400A498082D3ED80023042506934FF0040A336897
S21400A4A806990B98C9F80030C9F8107027F0FEFD19
S21400A4B84FEA9A030F93059B89F814000393002329
S21400A4C809930C9304930A93616C039B4A1E1A40E3
S21400A4D88B1A27B35544AB4223D8236B5B1A134415
S21400A4E823632FE1782F656CB9D8F07D0D9B002B80
S21400A4F8BCD0E36B01225B69706816A9984716A85A
S21400A50827F0B2FDB4E700250695C6E704250697AA
S21400A518C3E7012300254FF0080A0693BFE7534513
S21400A528DBD3A3EB0A029742039BB84628BF9046A4
S21400A5389742534428D90122D9F8101089F81720D1
S21400A5488F4226D10399C9F80410049299F8172067
S21400A5580AB399F818100398CA1C09EBC20250608F
S21400A56804980131A2F80880907289F81810B8F19A
S21400A578000F07D00B9A022A40F08180099A72B120
S21400A588012209929B46ABE0049A002A18BF0322D0
S21400A598DBE70222D9E7039AC9F80420E7E70C9A12
S21400A5A84244032AEED9E26B1846956914A901229B
S21400A5B80993A847099B05460028E1D03D2D40F0A1
S21400A5C81E8104F1080303932368059A606CA2EBC6
S21400A5D8030ABAFBF0FA00FB0A3027F0FFFDE16A2F
S21400A5E88046204627F04DFAA26A824200F00F8184
S21400A5F8626CD9F80830511E0B40216B2768891AFF
S21400A6080B442363089BE062DF1BB7FBF2F7BA45EF
S21400A61840F0FA80059BB3EB080A12D0E36B4FEACA
S21400A6289A0241469B6998478346E36A059A5344CB
S21400A638E362236B03989B1A4344236327F026FCA4
S21400A648DA462368616CE06B01FB073127F03BFDB7
S21400A658204627F059F9204627F056FA2063BAF123
S21400A668000F00F0D4803269616CD31D1439B3FB37
S21400A678F1F3013302EBC3029042A5D2BFE00D9A74
S21400A688002A77D1B8F1030F4FEA98026ED9E16B2A
S21400A69818468D6907991093A847109B0546C0B9B8
S21400A6A818F0030515D0079A28F0030B02EB0B01E8
S21400A6B89B444FF0FF3215A815922A46109312F0C5
S21400A6C867FCE26B5846956915A90122A847054616
S21400A6D8109B9B46079A42440792002D40F08B80B9
S21400A6E8049B16A80193069B009399F814204346EA
S21400A6F8316800F0CDFDE36B0F9A9B69039816A9A5
S21400A7089847039A051E089B18BF134608934346A6
S21400A71852462046039927F0E1F9236B08F1030215
S21400A728A3EB0A0322F003029B1AC9F80800236366
S21400A738002D7FF443AF0C9BA7EB080743440C930C
S21400A748CDF80CB02046039927F09BF90025039016
S21400A758002F7FF4B9AE364A3168936804F10800D2
S21400A768E36252680B9B00F00BFD49E09B464546AA
S21400A77807999EE79B4606F120021092F27D7068C4
S21400A788A2B1002296F818C00A99D5B2AC4511D9DC
S21400A798109D02F1010E35F832508D4228D90E98D8
S21400A7A806EBC2020144D069084403E00E9A0A99EF
S21400A7B80A441044E26B15A9556901221193A8476B
S21400A7C8159A0A9B1392E26B043395695846012240
S21400A7D813A90A93A847119B054603EB0802A2EBA8
S21400A7E80B02042A7FF679AF28B90BF1040BC5E7EC
S21400A7F87246491BC9E7CDF820B088E770252F4672
S21400A808384619B0BDE8F08F4FF0000A19E73269EC
S21400A818616CD31D1439B3FBF1F3013302EBC302A9
S21400A828236B9342BFF404AEE9E71C27E8E700BFB2
S21400A838A83A0020032A2DE9F34106460D46174696
S21400A8481C4606D1237A012B23D0012002B0BDE88E
S21400A858F081DFF86080096842460DF10703FFF7CC
S21400A868ABF960600028EDD19DF80720237A032A0B
S21400A878E8D0D8F804106A689142E3D1012B296918
S21400A888D4F80CC007D172690CEB0103934202D9C5
S21400A8982074207CDAE708316144E1603B460122F7
S21400A8A829463046FFF7ACFD60600028CAD0002075
S21400A8B8CCE700BFD43A00202DE9F341089C032AD0
S21400A8C81746266806D1237A012B24D0012002B029
S21400A8D8BDE8F081DFF89080304642460DF1070368
S21400A8E8FFF76AF960600028EDD12568D8F80400FB
S21400A8F8A96AD5F844C04840CCF100031840227A2B
S21400A908E1D1012A09D1E268D8F8103013447269F7
S21400A918934202D92074207CD9E72868EB6A1B1A70
S21400A928081AB3FBFCF3B0FBFCF083420BD1706C47
S21400A938F36A421E1340326B121A134428463363D6
S21400A94827F09FF8E862D8F81020E3680832134426
S21400A958E36001223B4604492068FFF751FD60602A
S21400A9680028B0D00020B2E7D43A00202DE9F04104
S21400A9780025604B0E46D3F8008004461D6018B9C3
S21400A98821252846BDE8F08190F8347007B30A6898
S21400A99803689A4240F0A3804A6843689A4240F0A7
S21400A9A89E808A6883689A4240F09980CA68C3681D
S21400A9B89A4240F094800A6943699A4240F08F8030
S21400A9C88A69C36B9A4240F08A804B698361D8E7EC
S21400A9D868223946856B12F04BF9D6E902123368BD
S21400A9E804F1080023607368A563636033696361D4
S21400A9F87369A36127F05CFAB36904F14000E36366
S21400AA089B68984720B9676C17B16368B3FBF7F77C
S21400AA1894F84330E761002BB2D00023656C2366B8
S21400AA28002D64D0002F62D02368B3FBF5F205FB37
S21400AA381233002B55D16668B6FBF5F305FB136396
S21400AA48002B4ED1204626F02BFFA369043303447F
S21400AA589E4248D340F634726369CC3B934244D84E
S21400AA68B5F5805F43D30321204626F042FFD4E99C
S21400AA780001E36B1B6898470546E36B0220DB681A
S21400AA889847CDB941462046FFF77AF96428054627
S21400AA9804D141462046FFF773F90546666C5DB952
S21400AAA8236A2046143E5E4326F0FAFEA369043362
S21400AAB803449E4238BF5A25002D0CBF01230023AD
S21400AAC884F8343007D1D4E900010B4A13680133FF
S21400AAD8136027F087FAE06B27F0A4F851E75D25A6
S21400AAE84FE759254DE75A254BE75F2549E75B258C
S21400AAF847E700BF38340020343400202DE9FF41F2
S21400AB080C4616461F46054680B390F834307BB38D
S21400AB18B1F5801F2ED2DFF86080012126F0E9FE0D
S21400AB282146424628460DF10F03FFF745F804462E
S21400AB3870B99DF80F30012B11D1D8F81030BB42F0
S21400AB4812D10246009031462846FFF743FB0446DA
S21400AB58E86B27F067F8204604B0BDE8F081022BC2
S21400AB6814BF2D246024F3E76324F1E72124F2E7D9
S21400AB781124F0E72924EEE7003B00202DE9F043F6
S21400AB8885B00C4617461E460546DDF8308098B355
S21400AB9890F8343093B3B1F5801F31D2DFF8649063
S21400ABA8012126F0A6FE21464A4628460DF10F0347
S21400ABB8FFF702F8044688B99DF80F30012B14D128
S21400ABC8D9F8102006EB08039A4213D300904346A0
S21400ABD8324639462846FFF7FDFA0446E86B27F062
S21400ABE821F8204605B0BDE8F083022B14BF2D24BB
S21400ABF86024F3E76324F1E72124F2E71124F0E761
S21400AC082924EEE7003B002073B50C461646054699
S21400AC1830B390F834302BB3B1F5801F24D201211D
S21400AC2826F067FE21462846104A0DF10703FEF770
S21400AC38C3FF044680B99DF80730032B0CD0022BBF
S21400AC480CD12846094927F04BF83060E86B26F007
S21400AC58E9FF204602B070BD2D24F7E76124F5E72A
S21400AC682124F6E71124F4E72924F2E7003B002024
S21400AC782DE9F3411E4600230C4617460546336069
S21400AC8850B390F834304BB3B1F5801F28D2DFF8B4
S21400AC985480012126F02DFE2146424628460DF115
S21400ACA80703FEF789FF0446A0B99DF80730032B73
S21400ACB810D0022B03BF01233B600423D8F81030C2
S21400ACC818BF38603360E86B26F0ACFF204602B049
S21400ACD8BDE8F0812D24F6E72124F7E71124F5E7EF
S21400ACE82924F3E7003B002073B50446056B26F0DD
S21400ACF8D7FD636E03449D422CBF00230123854283
S21400AD0894BF00252D1A207C84F85030656584F899
S21400AD185800A8B100230C4E1A461946204600963D
S21400AD2827F0A2F8002305461A461946204600963C
S21400AD3827F0A3F8E3682844984294BF0020C01A76
S21400AD48E06502B070BD00BFFFFF0F002DE9F347B6
S21400AD581E4643690446B342884617469DF828901F
S21400AD684ED300258DF80750204626F099FDD4F8D6
S21400AD7830A082450AD2236AB5EB430F06D20022DA
S21400AD8820460DF10701FFF745F9B8B39DF80730DF
S21400AD98012B05D1002220460DF10701FFF73AF9ED
S21400ADA8B9F1030F06D03146204626F069FD256B1B
S21400ADB8854227D3144D4FF0FF31284600F0B2FAEB
S21400ADC84B46294600222046C5E90376C5F800808A
S21400ADD8FFF716FB236E054663B12046FFF784FF90
S21400ADE894F8503013B994F858301BB1236E04F118
S21400ADF850009847284602B0BDE8F0870135B3E70B
S21400AE086225F7E71C25F5E7D43A00202DE9FF412F
S21400AE180F4690461E46054698B390F8343093B3CE
S21400AE28B1F5801F31D21A4C022126F062FD224667
S21400AE38394628460DF10F03FEF7BEFE024678B1E6
S21400AE48012342460093394633462846FFF77EFFDD
S21400AE580446E86B26F0E6FE204604B0BDE8F0811E
S21400AE689DF80F30012BEBD12169B142E8D1009350
S21400AE78414633462846FFF7ADF904460028DFD199
S21400AE88E7E72124E8E71124E6E72924E4E700BFFA
S21400AE98003B00202DE9F04790F8423086B0012BA1
S21400AEA805460391A1EB020740F0AA80FF2F03D8BE
S21400AEB81E464FF0640807E00226012B14BF4FF029
S21400AEC832084FF06408013600244FF6FF79DFF8A1
S21400AED844A195F84230012B14BF322364239C42C8
S21400AEE802D35FFA88F40DE005AB224651462846A1
S21400AEF826F0D4FE95F84230012B059B34D14B45FD
S21400AF082DD1E4B295F84230012B14BF32226422C8
S21400AF18121BB24217D3012E39D10022012B0597F6
S21400AF288DF8132027D1082205A90DF1130027F064
S21400AF3871F99DF81330059A42EA032221462846FD
S21400AF48FFF730FA40B10223324900932846CC2353
S21400AF58096803AAFFF7FAFE06B0BDE8F087DBB279
S21400AF6803B902340134B4E7591CCAD09BB2002B8B
S21400AF78F8D10134F6E7102205A90DF1130027F0E1
S21400AF8849F99DF81330059A42EA0342D6E7039A30
S21400AF98012B059223D10823202205A90DF11300C1
S21400AFA88DF8133027F036F99DF813201202214643
S21400AFB82846FFF7F7F995F84230611C012BC9B20D
S21400AFC81AD10028BFD12846BDF81420FFF7EAF9A1
S21400AFD80028B8D10234BDF81620E1B2AFE7102336
S21400AFE8202205A90DF113008DF8133027F012F969
S21400AFF89DF813201204DAE70028A4D1059A9EE7E4
S21400B008B7F5803F4FF00106BFF457AF4FF0320850
S21400B0185AE700BF003B002070B586B00E460546CE
S21400B0280392A0B390F834309BB3B1F5801F32D2A8
S21400B038022126F05EFC31462846184A0DF1170311
S21400B048FEF7BAFD044618B99DF81730032B0ED143
S21400B0580223314600932846CC2303AAFFF776FE40
S21400B0680446E86B26F0DEFD204606B070BD022BCF
S21400B0780BD10A49284626F033FE03990246814238
S21400B088EFD02846FFF706FFEAE76124E9E7212420
S21400B098EAE71124E8E72924E6E700BF003B00209A
S21400B0A8F7B50C461646054668B390F8343063B3D1
S21400B0B8B1F5801F2BD2022126F01BFC214628461C
S21400B0C8144A0DF10703FEF777FDC0B99DF807305F
S21400B0D8032B14D0022B14D10E49284626F000FE66
S21400B0E8471C024639462846FFF7D4FE044606B1F2
S21400B0F83760E86B26F096FD204603B0F0BD2D2499
S21400B108F7E76124F5E72124F6E71124F4E7292474
S21400B118F2E700BF003B002030B50C46054685B078
S21400B12828B390F8343023B3B1F5801F23D2022118
S21400B13826F0DFFB0DF10F03214628460F4AFEF7DF
S21400B1483BFD034688B99DF80F20032A0DD003223D
S21400B1582146009202462846FFF7F8FD0446E86BAB
S21400B16826F060FD204605B030BD2D24F7E72124E3
S21400B178F8E71124F6E72924F4E700BF003B00208F
S21400B1882DE9F043466886B3056898464FF0000CEC
S21400B198A946AE4655F83C400CF1010CC4F313071B
S21400B1A8013401D0B94217D0B4450EF1080EF1D1DA
S21400B1B82F46002403E0B44207F1080712D055F8DA
S21400B1C8343001340133F6D1C1F3130141EA085192
S21400B1D8C7E90012BDE8F08341EA0851CEE900123B
S21400B1E8BDE8F083B8F1030F03D101230372BDE86D
S21400B1F8F083002303E0B34209F10809F5D055F8B7
S21400B20833400133C4F30754032CF4D1C1F31303BA
S21400B21843EA0853C9E90032BDE8F0832DE9F04156
S21400B2280646406882B0B8B10F4690460024336898
S21400B23853F8345003EBC403C5F30752C5F31301A0
S21400B248013506D05B683046CDF80080B84718B19F
S21400B258706801348442EAD302B0BDE8F08100BFCA
S21400B268024B1968024B1868FFF780BBA8630020DA
S21400B278C863002008B530F0BAF8014B186008BD5E
S21400B2882C3B0020014B186830F0ACB82C3B002053
S21400B29873B504462248012A00EAC1119DF81850E1
S21400B2A823F07C4007D9961E012E28D9073303F0D1
S21400B2B87F03194308E09DF81C300A43DB0603F0B9
S21400B2C8C053134343F060410023C4E900108DF8CF
S21400B2D80730B5B1202221460DF1070026F09AFF67
S21400B2E81A220DF10700211D26F094FF0820636836
S21400B2F89DF8072043EA8263636002B070BD11437D
S21400B308E2E71B220DF10700214626F083FF23689B
S21400B3189DF80720042043EAC2632360EDE700BFD8
S21400B32880FFFF0738B5094B0D461A68002104460A
S21400B33811F09EFC00234FF0FF322383C4E900255A
S21400B3482361A260E382A37638BD00BF34570400A9
S21400B3580138C0B205289ABF014B185C0120704717
S21400B368395704002DE9F0410746154600240E46D5
S21400B378596888B0490A012922464FEA510104F162
S21400B3880104F8D8DC78997824031B88C90201F4EC
S21400B398006104F480540C43C3F30A0352032344A5
S21400B3A892B24FF000089C18274B6FEA04440393A8
S21400B3B825F07843ED4302A90DF107001B220293FE
S21400B3C88DF8078026F026FF9DF80720029B02A925
S21400B3D843EAC2630DF107001B2225F07845049363
S21400B3E802958DF8078026F015FF9DF80720029B2A
S21400B3F86FEA144443EAC26305934FF0FF33079499
S21400B408069307A9BB69012206F110009847BB6995
S21400B41805A90446012206F108009847BB6940457D
S21400B42818BF044604A90122301D9847012240454A
S21400B43818BF0446BB69304603A99847404508BF6D
S21400B448204608B0BDE8F08101009AB2044BD3F854
S21400B4588420D206FBD4D3F88400C0F3811070474A
S21400B4680040005038B5184B0546D3F824010C4662
S21400B47800F00700062823D8DFE800F0040A121AAE
S21400B4881E0E1600012305B1286004B1236038BDDE
S21400B4982EF0E6F80523F6E72EF0E2F80623F2E7A4
S21400B4A82EF018F90323EEE72EF014F90423EAE742
S21400B4B82EF00CF90223E6E72FF0ACFF0723E2E7AD
S21400B4C800231846DFE700BF0080005038B5104B51
S21400B4D80546D3F800310C4603F00303022B0BD0C5
S21400B4E8032B0DD0012B0FD12EF0F4F8032305B152
S21400B4F8286004B1236038BD2EF0F2F80823F6E77A
S21400B5082FF088FF0723F2E701230020EFE700BFAC
S21400B5180080005038B5104B0546D3F820310C464D
S21400B52803F00303022B0BD0032B0DD0012B0FD1F6
S21400B5382EF096F8052305B1286004B1236038BDBF
S21400B5482EF0C8F80323F6E72EF0C0F80223F2E739
S21400B55801230020EFE700BF0080005038B5104BED
S21400B5680546D3F840310C4603F00303022B0BD0F4
S21400B578032B0DD0012B0FD12FF04EFF092305B159
S21400B588286004B1236038BD2EF0AAF80823F6E731
S21400B5982FF045FF0B23F2E701230020EFE700BF5B
S21400B5A80080005038B5104B0546D3F860310C467D
S21400B5B803F00303022B0BD0032B0DD0012B0FD166
S21400B5C82FF02AFF092305B1286004B1236038BD8F
S21400B5D82EF086F80823F6E72FF021FF0B23F2E774
S21400B5E801230020EFE700BF0080005073B50D462A
S21400B5F800210E4B0191D3F88041064604F003045F
S21400B608012C09D0022C0CD00C460EB1019B3360DD
S21400B61805B12C6002B070BD01A8FFF77BFF0F24B0
S21400B628F3E72EF053F80190EFE700BF00800050D4
S21400B63838B5104B0546D3F840320C4603F00303E2
S21400B648022B0BD0032B0DD0012B0FD12FF0E4FECD
S21400B658092305B1286004B1236038BD2EF040F8F0
S21400B6680823F6E72FF0DBFE0B23F2E70023184645
S21400B678EFE700BF0080005038B5144B0546D3F8F6
S21400B68800020C4600F0070004281BD8DFE800F08C
S21400B69803090D111500012305B1286004B12360C4
S21400B6A838BD2FF0B9FE0923F6E72EF019F808235F
S21400B6B8F2E72FF0B4FE0B23EEE72DF0F1FF0E2392
S21400B6C8800AE9E700231846E6E700BF0080005036
S21400B6D810B40D4C0B46D4F8204204F00304012C99
S21400B6E80AD0022C0CD008B1002101600BB1002250
S21400B6F81A605DF8044B70475DF8044BFFF70ABF05
S21400B7085DF8044BFFF72ABF00800050B0F5207F95
S21400B7181FD009D8B0F5007F15D003D868B1B0F5AA
S21400B728C07F0AD000200CE0B0F5607FFAD10B4B42
S21400B738D3F88000C0F3011003E0084B186FC0F37D
S21400B748033001307047054BD3F89000C0F304600F
S21400B758F7E7024B186FC0F38020F2E7008000502E
S21400B7684FF400320E4B014610B500209A66FFF7DC
S21400B778CDFF484341F671320A490B4B884294BFC5
S21400B78800200120DC69DA639A6822F4401242EA53
S21400B79800529A60E20344BF0022DA6310BD00BF7D
S21400B7A800900050005A6202000003505F2898BFBD
S21400B7B8094B4FEA501294BF53F82230074B00F05B
S21400B7C81F0029B103F58053012282401A60704792
S21400B7D803F50053F8E700BF4057040060820050A6
S21400B7E81FB50021B0F5807F0446019100F0068160
S21400B7F800F29D80612800F295801F2805D8002851
S21400B80840F092802DF04CFFDCE0A0F12004412CA3
S21400B81800F28A8001A353F824F000BF0DB8000098
S21400B828D1B900000DB80000D1B90000F1B9000088
S21400B838F1B90000F1B90000F1B90000D1B9000073
S21400B848D1B90000ABB9000065B9000027BA0000FE
S21400B85831BA000065B90000D1B90000D1B90000BE
S21400B868D1B9000031B9000031B9000031B9000083
S21400B87831B9000031B9000031B90000FBB9000049
S21400B88887B90000D1B90000D1B90000D1B90000CD
S21400B89845BA00003BBA0000D1B9000031B9000033
S21400B8A831B9000031B9000031B9000031B90000E3
S21400B8B831B9000031B9000031B9000031B90000D3
